{
  "abi": [
    {
      "anonymous": false,
      "inputs": [
        {
          "indexed": false,
          "internalType": "address",
          "name": "token",
          "type": "address"
        },
        {
          "indexed": false,
          "internalType": "address",
          "name": "exchange",
          "type": "address"
        }
      ],
      "name": "exchangeCreated",
      "type": "event"
    },
    {
      "inputs": [
        {
          "internalType": "address",
          "name": "token",
          "type": "address"
        }
      ],
      "name": "createExchange",
      "outputs": [
        {
          "internalType": "address",
          "name": "",
          "type": "address"
        }
      ],
      "stateMutability": "nonpayable",
      "type": "function"
    },
    {
      "inputs": [
        {
          "internalType": "address",
          "name": "token",
          "type": "address"
        }
      ],
      "name": "getExchange",
      "outputs": [
        {
          "internalType": "address",
          "name": "",
          "type": "address"
        }
      ],
      "stateMutability": "view",
      "type": "function"
    },
    {
      "inputs": [
        {
          "internalType": "uint256",
          "name": "id",
          "type": "uint256"
        }
      ],
      "name": "getTokenWithId",
      "outputs": [
        {
          "internalType": "address",
          "name": "",
          "type": "address"
        }
      ],
      "stateMutability": "view",
      "type": "function"
    },
    {
      "inputs": [
        {
          "internalType": "address",
          "name": "exchange",
          "type": "address"
        }
      ],
      "name": "gettoken",
      "outputs": [
        {
          "internalType": "address",
          "name": "",
          "type": "address"
        }
      ],
      "stateMutability": "view",
      "type": "function"
    }
  ],
  "bytecode": {
    "object": "0x608060405234801561001057600080fd5b5061039b806100206000396000f3fe608060405234801561001057600080fd5b506004361061004c5760003560e01c806306f2bf62146100515780631648f38e146100995780637ba70bf2146100ac578063aa65a6c0146100d8575b600080fd5b61007d61005f36600461022d565b6001600160a01b039081166000908152600160205260409020541690565b6040516001600160a01b03909116815260200160405180910390f35b61007d6100a736600461022d565b610101565b61007d6100ba36600461022d565b6001600160a01b039081166000908152602081905260409020541690565b61007d6100e636600461025d565b6000908152600260205260409020546001600160a01b031690565b60006001600160a01b03821661011657600080fd5b6001600160a01b03828116600090815260016020526040902054161561013b57600080fd5b60008260405161014a90610221565b6001600160a01b039091168152602001604051809103906000f080158015610176573d6000803e3d6000fd5b5060038054919250600061018983610276565b90915550506001600160a01b03838116600081815260016020908152604080832080549587166001600160a01b031996871681179091558084528383528184208054871686179055600354845260028352928190208054909516841790945583519283528201527fccf27519ae023a7ec9e88b904eafabfab2d64dae8c412072aa47eb44e8a36e72910160405180910390a192915050565b60c88061029e83390190565b60006020828403121561023f57600080fd5b81356001600160a01b038116811461025657600080fd5b9392505050565b60006020828403121561026f57600080fd5b5035919050565b60006001820161029657634e487b7160e01b600052601160045260246000fd5b506001019056fe6080604052348015600f57600080fd5b5060405160c838038060c8833981016040819052602a91604e565b600080546001600160a01b0319166001600160a01b0392909216919091179055607c565b600060208284031215605f57600080fd5b81516001600160a01b0381168114607557600080fd5b9392505050565b603f8060896000396000f3fe6080604052600080fdfea26469706673582212207db595b0abece1383bf9b0a3128db0ea8a574733b73de5121004cd63eff6928364736f6c63430008150033a26469706673582212203a6efd04246253287ecdce8fa1953954bbc312d7a207c9bbbce72d8c3d4ccfd164736f6c63430008150033",
    "linkReferences": {}
  },
  "methodIdentifiers": {
    "createExchange(address)": "1648f38e",
    "getExchange(address)": "06f2bf62",
    "getTokenWithId(uint256)": "aa65a6c0",
    "gettoken(address)": "7ba70bf2"
  },
  "id": 1
}